:400000000080002011000000110300001103000008B5044B1A6803F53F5302331A6000F07FF900BFFA46004010B5054C237833B9044B13B10448AFF300800123237010BDD7
:400040005081FF1F00000000680A0000084B10B51BB108490848AFF300800848036803B910BD074B002BFBD0BDE81040184700BF000000005481FF1F680A0000C880FF1F0E
:400080000000000008B562B600F07EFB0021402000F022FC00F0A0F9064B1B789842F9D000F09AF9034B187002231A46002100F081FBEFE78181FF1FFEE700BFF0B4002298
:4000C000174611E050F82760F3B226F0FF0608E001EB420511F812406D78A5550132013BDBB2002BF4D10137142FEBD9F0BC7047064B1B78DBB203F00701054A11701B09E0
:40010000013213704422034B1A707047CF0100496E5800407658004008B50A46002100F09AFC08BD38B5E922244B1A80182202331A70022203F27E231A7008224FF0402364
:400140001A70032103F5007319701D4B1B78DBB21C490B701C4B1A8041F25122023B1A80002419250CE0194B1B7803F0010343EA440404F003044FF4F07000F025FC013D59
:400180000DB1032CEFD115B90320FFF795FF104B4FF480721A8007221A7000220D490A704820023108701A700222033B1A700A4A137843F00103137038BD00BF8040004072
:4001C00008010049A146004022420040254200400440004006400040A243004008B500F02FFC08BD38B572B6344A137843F00403137000240CE0324D630019194A001146CF
:400200002A44084691882858FFF786FF0134E4B2072CF0D92B494FF09040FFF74FFF04212948FFF779FF04212848FFF775FF042227492848FFF7D2FF274A137843F002035C
:4002400013701032137843F002031370234C237843F040032370A2F58632513A137843F01003137008221E491E48FFF7B7FF08221D491E48FFF7B2FF08221D491D48FFF707
:40028000ADFF0A221C491D48FFF7A8FF1C4A137843F0080313701B4D61232B70FFF742FF81232B700122184B1A70FFF721FF0E2221461648FFF792FF38BD00BFE84600408C
:4002C0006C0A0000540000480076004008760040D40100481076004003500140A0430040B001004802510040B801004812510040C001004822510040C80100483051004020
:40030000224300400048004004000840B043004008B500F069FB03680C2B00D1FEE7FEE708B5104E104D16E029686B68AC68002204E051F8040B43F8040B0432A242F8D152
:40034000E868002203E0002143F8041B04328242F9D11035013E002EE6D100F04BFBFFF791FEFEE701000000040D000008B5114A114B1A60114A136843F4007313600023CA
:400380000AE0032B03D80E4A52F8231000E00D490D4A42F8231001332F2BF2D90B4B1A780B4B1A70084A0B4B1A60FFF71BFF00F01BF808BD0004FA050CED00E014ED00E0A3
:4003C00000000000110300000080FF1FBC760040C080FF1F08ED00E0024B187800F07F00704700BF315100400B4A7F2313708021517007E0DA0002F1804202F5F042013B6B
:40040000DBB21370002BF5D1DB0003F1804303F5F04300221A707047CC80FF1F172815D831B103010A495A5C42F020025A5405E0030107495A5C02F0DF025A540001044A55
:40044000835C43F00103835400207047012070471070004017280BD80001064A835C03F0F103490001F00E011943815400207047012070471070004041F6FF73994201D1A8
:400480004FF4005141F6FF739A4201D14FF40052172808D8C00000F1804000F5EC408180C280002070470120704700BF172805D8034B03EB00104172002070470120704790
:4004C0001070004017281BD810B4C00000F1804404F5EC44D201D2B201F07F01114321709DF804201201D2B203F00F03134363709DF8083003F00F03A3700020E07001E047
:400500000120704710BC704710B500F065FA0A4B5B78182B0BD9084A1478013B5370E30003F1804303F5F0431B78137000E0FF2400F056FA204610BDCC80FF1F10F0800FD6
:400540000CD111F4704F0BD1C00000F1804000F5F04001808270C37000207047012070470120704710F0800F08D1C00000F1804000F5F0408180C28000207047012070474B
:4005800010B54FF4804341F6FF720121084600F0C1F9504B1870FF2808D13FE0FFF7B4FF4C4B234418710134E4B200E00024032CF4D9002419E014F0010F0AD1454A1019AD
:4005C000631C1A440123127919460079FFF7B6FF09E0404A1019631C1A440123127919460079FFF7ABFF0134E4B2022CE3D93948012302791946C079FFF7A0FF00240BE03B
:40060000344B23443449214446F27A4289B21879FFF7A8FF0134E4B2032CF1D94FF4804341F6FF720121084600F092F9294B1872FF2808D130E0FFF767FF264B234418736B
:400640000134E4B200E00024012CF4D900230AE0204AD0185C1C22440523127B0121007BFFF76CFFE3B2002BF2D01A480523027B0121407BFFF762FF00240BE0154B23442E
:400680001649214446F27B4289B2187BFFF76AFF0134E4B2012CF1D94FF4804341F6FF720121084600F072F90A4B9873FF2810D0FFF72AFF0246074CE07301230221FFF768
:4006C0003DFF04F1100146F2245289B2E07BFFF749FF10BD6C81FF1FD480FF1F8481FF1F10B50D4C21792078FFF7E0FE217B207AFFF7DCFEE17BA07BFFF7D8FE01212078A2
:40070000FFF78CFE0121207AFFF788FE0121A07BFFF784FE10BD00BF6C81FF1F08B5FFF7DFFF0023044A137010321370012350321370024A937408BD146500406C81FF1F66
:40074000002304E0FF21034AD1540133DBB2012BF8D970478481FF1F08B5FFF7F1FF094BDB7C23B9FFF70CFF0122064BDA74002305E0044A1A44FF2111740133DBB2012B15
:40078000F7D908BD6C81FF1F08B5054B1B7D23B9FFF7E2FF0122024B1A75FFF7BFFF08BD6C81FF1F00F00F00014B185C704700BF9C0A00002DE9F04383B081460E461446F2
:4007C0009846002300930193012909D9032903D88E1EF6B2012704E00E1FF6B2022700E0002723460BE05D1E09F00F00FFF7DAFF02AB2B4403F8080C4FEA1919EBB2002B55
:40080000F1D1B8F1020F14D117E0194602A8184410F8080CC02810D1601E824206D002A80144FF2001F8080C0132D2B20133DBB201E000221346A342E7D3B8F1010F43D1A3
:4008400015E002AA1A4412F8082CFF2A0CD0012E08D817B1022F03D804E01E498A5501E01C498A550136F6B20133DBB200E00023A342E6D30CE017B1022F04D806E0FF22FB
:40088000144B9A5502E0FF22124B9A550136F6B2A642F0D31AE0A319013B012B12D817B1022F08D80EE0621E02A90A4412F8081C084AD15406E0621E02A90A4412F8081C97
:4008C000044AD154013CE4B2002CE4D103B0BDE8F08300BF8481FF1F10B4044630B94B00DBB20133FF20084AD05408E04B00DBB20133064A1A4492F83002034AD054044B6E
:4009000019440C7410BC7047D480FF1F9C0A00006C81FF1FF0B583B016461F460B4C012525700023019300930A4601462846FFF7C9FD3A4631462078FFF79EFD02212078A3
:40094000FFF788FD207803B0F0BD00BFE480FF1FF0B583B016461F460B4C022525700023019300932B460A4601462846FFF7AAFD3A4631462078FFF77FFD29462078FFF7BC
:4009800069FD207803B0F0BDE580FF1FF0B583B016461F460B4D00242C700194009423460A4601462046FFF78DFD3A4631462878FFF762FD02212878FFF74CFD287803B055
:4009C000F0BD00BFE680FF1F0230800803D000BF01380046FCD17047EFF3108072B6704780F31088704700BF014B1868704700BF4881FF1F0E4B70B51E460E4C0025E41A5E
:400A0000A410A54204D056F8253098470135F8E700F066F9084B094C1E46E41AA4100025A54204D056F8253098470135F8E770BDEC0C0000EC0C0000EC0C0000F40C000017
:400A400010B5431E0A44914204D011F8014B03F8014FF8E710BD03460244934202D003F8011BFAE77047000000000000405100403000C05100401000F05100401000000037
:400A80000140001000140140000800400140000A004C01400002005001402000C0F9A4B0999282F880908883C6A1868EFFFFFFFFFFFFFFFFFFFFFFFFFFBF7FFFC0F9A4B038
:400AC000999282F88090FFFFFFB7FFFFFF8883A7A1868EC28BEFE189C7AAABA38C98AF9287E3E3E28991A4FFFFFFFFF7FF8883A7A1868EC28BEFE189C7AAABA38C98AF924F
:400B000087E3E3E28991A4FFFFFFFFFFDBFFFFFFFFFFFFFFFFFFFFEDFFEDFFFFC0F92430191202F800100870C6F0060EFFFFFDFFFFFFFFFFF3DEC0FFDFFFFFFFDBFFFFFF67
:400B4000FFFFFFFFFFFFFFFFFFFFFFEFFFFFEDFFEDFFFFFFFFEDFFF3FFFAF6FFFFF7F7FFEDFFDBD7D2EADBFFFFFFFFFFFFFFFFFFFFFFFFFFFFEFFFF3EDEFFFFFFFF7FFFF2F
:400B8000EDFFDFEFD2EADBFFFFFFFFFFFFCFDFFFFFFFFFDFFFFF3FFFFF3FFFFFC0F92430191202F80010FFFFFF37FF7CFF0870C6F0060E4209F6E18FC7C9C9C00CC00C1203
:400BC000FEC1CFC9FFFFF6FFFFFFFFF7FF08032721060E100BFFE18FFF2B2B230CC02F123FE3EFE3FFFFF6FFFFFFFFFF6FFFFCFCFCFCFCFFFCFCFCB5FFB7FCFC00F388C074
:400C0000734404F0007030C00CC00C3CFFFFF7FFFFFFFFFFCF7B00FF7FFCFFFF6FFFFCFCFCFCFCFFFCFCFFFFFFFCFFBDFFFCB5FFB7FCFCFDFCB7FFCEFFEBDBFFFCDFDCFC8B
:400C4000B7FF6F5F4BAB6FFFFFFFFFFFFFBEBEFEB67EB4B6BEBFB795B7BCBCBEF6B6BDDDB4BF7FBF4BB67EFFFFFFFFFFFF3F7FFFFFFFFF7FFFFFFFFFFFFFFFFF00F388C0E7
:400C8000734404F00070FFFFFFCFFFF8FF30C00CC00C3C0433CC833F0F33330038003844FC033F33FFFFCCFFFFFFFFCFFF8F1F9F9F9FFD5E3FFFDFFFFFB7F79F3E6EFFEF78
:400CC000FF8FBF87FF5FDFFFFFFFFFFF0001000200040008001000200040008043000000F8B500BFF8BC08BC9E4670474D0000006D030000F8B500BFF8BC08BC9E467047EB
:400D000029000000180D0000C880FF1F880000003800000000000000000000007F8000000700000000010002000400080010002000400080FFFFFF0000000000000000003D
:400D4000000000000000000000000000000000000000000000000000DC0C00000000000000000000000000000000000000000000000000000000000000000000000000008B
:400D8000000000000000000000000000000000000000000000000000E880FF1F000000000000000000000000000000000000000000000000000000000000000000000000AD
:400DC00000000000000000000000000000000000000000000000000000000000000000000000000000000000000000000000000000000000000000000000000000000000F3
:400E000000000000000000000000000000000000000000000000000000000000000000000000000000000000000000000000000000000000000000000000000000000000B2
:400E40000000000000000000000000000000000000000000000000000000000000000000000000000000000000000000000000000000000000000000000000000000000072
:400E80000000000000000000000000000000000000000000000000000000000000000000000000000000000000000000000000000000000000000000000000000000000032
:020000040003F7
:0200000480007A
:400000000452004004030140040501400507014003090140040A01400D0B0140020D0140301401401D1501400317014005400140114101400C4201400643014004450140F7
:40004000054601400148014002490140025001400151014000390153100811089A04AA04E202E60187209A04E228E6028B109A04A720E680EA22AC20B004EA205B045F01F1
:40008000DB04DF0169906C206D806F487404770A870A89108B088D409F40A540E220834085400022010402080308050807040C110ECE14C0162019011B021E051F03266628
:4000C0002A80300C3230330C34C03501360337023A803F04401245064705481149FF4AFF4BFF4D104E704F0F50085201580459045A045B045F01601061BC6210635864901B
:40010000655801420A111020120819021A111B20200523103020324038013A0440054820520869406A808C0197109A04A720C009C205C406CC0CCE03D00CE61097109A04FB
:40014000A720138039083E82C440CEE05108570858105F88608065208308878095089E82AB80D4E0D6A0D8C0E240E680E880852086028708881095089C909D209E829F0839
:40018000A508E210E650890495089E80AD08B080EA4050085401D404D60488018C08A409E001E4089E808E809E8010011A01102A007F7F007F000000000B0B0000000000DA
:4001C000000C0C000C0000007F00007F00000000000000000002000000000000000000000000000000000000000000000000000000000000000000000000000000000000DB
:4002000000000000000000000000000000000000000000000000000000000000000000000000000000000000000000000000000000000000000000000000000000000000BE
:40024000000000000000000000000000000000000000000000000000000000000000000000000000000000000000000000000000000000000000000000000000000000007E
:40028000000000000000000000000000000000000000000000000000000000000000000000000000000000000000000000000000000000000000000000000000000000003E
:4002C00000000000000000000000000000000000000000000000000000000000000000000000000000000000000000000000000000000000000000000000000000000000FE
:0200000490006A
:0400000000004005B7
:0200000490105A
:04000000BC90ACAF55
:0200000490303A
:0200000027D205
:0200000490402A
:4000000000000000000000000000000000000000000000000000000000000000000000000000000000000000000000000000000000000000000000000000000000000000C0
:400040000000000000000000000000000000000000000000000000000000000000000000000000000000000000000000000000000000000000000000000000000000000080
:400080000000000000000000000000000000000000000000000000000000000000000000000000000000000000000000000000000000000000000000000000000000000040
:4000C0000000000000000000000000000000000000000000000000000000000000000000000000000000000000000000000000000000000000000000000000000000000000
:0200000490501A
:0C00000000012E16106900012E1C383B78
:00000001FF