:400000000080002011000000450500004505000008B5044B1A6803F53F5302331A6000F099FA00BFFA46004010B5054C237833B9044B13B10448AFF300800123237010BD50
:400040007881FF1F00000000080C0000084B10B51BB108490848AFF300800848036803B910BD074B002BFBD0BDE81040184700BF000000007C81FF1F080C0000C880FF1F7A
:40008000000000000023084A1370084A1370084A13780133DBB213701378DBB2012B02D90022034B1A7070479881FF1F9B81FF1F9A81FF1F064A13780133DBB2137013782E
:4000C000DBB20C2B02D90022014B1A70704700BF9881FF1F064A13780133DBB213701378DBB23C2B02D90022014B1A70704700BF9B81FF1F704700BF10B5044600210120D4
:4001000000F042FC054800F0D7FB0021012000F03BFC204600F056FC10BD00BF0C0C0000F8B506464FF4486408E0204600F080FAC82000F0E7FA04F59674A4B241F2446341
:400140009C42F2D9012413E0A5B205EB850303EB43135800C0F5B250043080B200F068FA2846FFF7C9FFC82000F0CCFA0134E4B23746194B9D5DAC42E6D933441B7B9D42DB
:400180000FD323E0144B03EB4403188B00F050FA2046FFF7B1FFC82000F0B4FA0134E4B200E000240C4B3B441B7B9C42EAD9F8BD094B03EB4503188B00F03AFA2846FFF711
:4001C0009BFFC82000F09EFA013DEDB2024B3B441B7B9D42ECD8F8BDCC80FF1F08B50024474B1C70474B1C70474B1C70474B1C7000F0BCFB2146204600F0C6FB444800F0FA
:400200005BFB62B6434800F051FC434800F076FC424800F023FC424800F098FC00F064FA0A21002000F0B0FB022000F0CBFB0220FFF776FF4FF4FA5000F064FA0A21002035
:4002400000F0A2FB032000F0BDFB0320FFF768FF4FF4FA5000F056FA0A21002000F094FB042000F0AFFB0420FFF75AFF4FF4FA5000F048FA0A21002000F086FB052000F04E
:40028000A1FB0520FFF74CFF4FF4FA5000F03AFA0A21002000F078FB062000F093FB0620FFF73EFF4FF4FA5000F02CFA0A21002000F06AFB072000F085FB0720FFF730FFBA
:4002C0004FF4FA5000F01EFA0A21002000F05CFB082000F077FB0820FFF722FF4FF4FA5000F010FA0A21002000F04EFB092000F069FB0920FFF714FF0A4800F003FA8FE79F
:400300009B81FF1F9881FF1F9981FF1F9A81FF1F1C0C0000B5000000F5000000D50000008500000080380100FEE700BFF0B40022174611E050F82760F3B226F0FF0608E0C7
:4003400001EB420511F812406D78A5550132013BDBB2002BF4D10137122FEBD9F0BC7047064B1B78DBB203F00701054A11701B09013213704422034B1A707047CF01004960
:400380006E5800407658004008B50A46002100F032FC08BD38B50922244B1A80182202331A70022203F27E231A7008224FF040231A70032103F5007319701D4B1B78DBB2C4
:4003C0001C490B701C4B1A8041F25122023B1A80002419250CE0194B1B7803F0010343EA440404F003044FF4F07000F0BDFB013D0DB1032CEFD115B90320FFF795FF104BE7
:400400004FF480721A8007221A7000220D490A704820023108701A700222033B1A700A4A137843F00103137038BD00BF8040004008010049A14600402242004025420040AE
:400440000440004006400040A243004008B500F0C7FB08BD38B572B62B4A137843F00403137000240CE0294D630019194A0011462A44084691882858FFF786FF0134E4B2F0
:40048000072CF0D922494FF09040FFF74FFF214A137843F0020313701032137843F0020313701D4C237843F040032370A2F58632513A137843F01003137008221749184824
:4004C000FFF7C4FF082217491748FFF7BFFF082216491748FFF7BAFF164A137843F008031370154D61232B70FFF754FF81232B700122124B1A70FFF733FF0E222146104839
:40050000FFF7A4FF38BD00BFE8460040240C00004C00004803500140A0430040C4020048C2510040CC02004812510040D40200482251004022430040004800400400084021
:40054000B043004008B500F01FFB03680C2B00D1FEE7FEE708B5104E104D16E029686B68AC68002204E051F8040B43F8040B0432A242F8D1E868002203E0002143F8041B03
:4005800004328242F9D11035013E002EE6D100F001FBFFF723FEFEE7010000007C0C000008B5104A104B1A60104A136843F40073136000230AE0032B03D80D4A52F82310D5
:4005C00000E00C490C4A42F8231001332F2BF2D90A4B1A780A4B1A70074A0A4B1A60FFF739FF08BD0004FA050CED00E014ED00E000000000450500000080FF1FBC760040BA
:40060000C080FF1F08ED00E0024A137843F08003137070477D640040014B1880704700BF18680040014B1880704700BF98680040014B1880704700BF58680040014B1880AD
:40064000704700BF78680040014B1870704700BF8D640040014B1878704700BF6D640040014B188880B27047B868004008B501E0FFF7F6FFFFF7EEFF10F0100FF8D108BDB8
:4006800010B5174A137803F0C00343F0090313701F32137843F001031370124C237843F0010323704BF68030FFF7B6FF4BF68030FFF7B8FF4FF46160FFF7BAFF4FF46160C7
:4006C000FFF7BCFF0020FFF7BFFF00F055FA237843F01003237000F053FAFFF7C7FF10BD7D6400409D64004008B5054B1B7823B9FFF7C6FF0122024B1A70FFF785FF08BD2A
:400700009481FF1F10B5044605E0084B186800F02BFAA4F50044B4F5004FF6D8034B586800FB04F000F020FA10BD00BF0081FF1F08B5034B1B7A00FB03F000F015FA08BD83
:400740000081FF1F10B50B4C237803F09F032370237803F0F00323702378184340F0100020700120FFF7E4FF237803F0EF03237010BD00BFC051004038B505460E4C23780A
:4007800043F020032370237803F0BF0323700020FFF7CEFF237803F0F003237023781D4345F0100525700120FFF7C2FF237803F0EF03237038BD00BFC051004070B5354B07
:4007C0001A7802F08002D2B21A7033490A7802F0F00242F00F020A7001310A7802F0F0020A7001310A7802F0F0020A701A7802F0DF021A701A7842F040021A704FF4CA7620
:400800000020FFF795FF234D2B7843F010032B700120FFF78DFF214B1C78E4B22B7803F0EF032B700020FFF783FF04F00804E4B22B7843F010032B700120FFF779FF2B78DA
:4008400003F0EF032B7014B90A20FFF771FF013E0CB1002ED4D10F4A137803F0BF031370137803F08003DBB213700232137803F0F00313700132137803F0F00343F00F038E
:4008800013700132137803F0F00343F00F03137070BD00BFC0510040C2510040C151004010B50446FFF78AFF2009FFF765FF04F00F00FFF761FF10BD38B50546007801245B
:4008C00004E0FFF7EDFF285D0134E4B20028F8D138BD00BF10B50446FFF770FF2009FFF731FF04F00F00FFF72DFF10BD08B52820FFF708FF0320FFF725FF0520FFF702FF2D
:400900000320FFF71FFF0F20FFF7FCFE0320FFF719FF0120FFF7F6FE0220FFF713FF0520FFF7F0FE0620FFF7D5FF0E20FFF7D2FF2C20FFF7CFFF0820FFF7CCFF0120FFF7FD
:40094000C9FF0C20FFF7C6FF0320FFF7C3FF0520FFF7D8FE08BD00BF08B50C20FFF7BAFF0122014B1A7008BD9581FF1F08B5054B5B7823B9FFF7BAFF0122024B5A70FFF753
:40098000EBFF08BD9581FF1F08B5032819D8DFE800F002070D1381F08000FFF79BFF08BDA1F14000C0B2FFF795FF08BDA1F16C00C0B2FFF78FFF08BDA1F12C00C0B2FFF7E3
:4009C00089FF08BD10B584B000238DF80E30092211E0144BA3FB0013DB081C4603EB83035900431ADBB2303304A9114401F80C3C2046013AD2B20928EBD80A4BA3FB0013DE
:400A0000DB0803EB83035900431ADBB2303304A9114401F80C3C01AB9818FFF74DFF04B010BD00BFCDCCCCCC014B1B689864704708ED00E04001C0B2014B1870704700BF13
:400A400002E400E00422014B1A60704700E100E00422014B1A60704780E100E010B50446FFF7F6FF2046FFF7DFFF0720FFF7E2FFFFF7E8FF10BD00BF014B1B68586470478B
:400A800008ED00E04001C0B2014B1870704700BF01E400E00222014B1A60704700E100E00222014B1A60704780E100E010B50446FFF7F6FF2046FFF7DFFF0720FFF7E2FF29
:400AC000FFF7E8FF10BD00BF014B1B68D864704708ED00E04001C0B2014B1870704700BF03E400E00822014B1A60704700E100E00822014B1A60704780E100E010B50446D3
:400B0000FFF7F6FF2046FFF7DFFF0720FFF7E2FFFFF7E8FF10BD00BF014B1B681864704708ED00E04001C0B2014B1870704700BF00E400E00122014B1A60704700E100E030
:400B40000122014B1A60704780E100E010B50446FFF7F6FF2046FFF7DFFF0720FFF7E2FFFFF7E8FF10BD00BF0230800803D000BF01380046FCD17047EFF3108072B6704759
:400B800080F31088704700BF014B1868704700BF7081FF1F0E4B70B51E460E4C0025E41AA410A54204D056F8253098470135F8E700F052F8084B094C1E46E41AA4100025E1
:400BC000A54204D056F8253098470135F8E770BD640C0000640C0000640C00006C0C000010B5431E0A44914204D011F8014B03F8014FF8E710BD03460244934202D003F816
:400C0000011BFAE77047000000000000202020202020202020202020000000004E756D65726F0000005100401000305100404000F051004010000000014000100014014031
:400C4000000800400140000A004C0140000200500140200043000000F8B500BFF8BC08BC9E4670474D000000A1050000F8B500BFF8BC08BC9E46704729000000900C0000A8
:400C8000C880FF1FB00000002800000000000000000000000C090B0A090A000900090000080706060405050608080000441604151414CA1294116810A00F960FBC0CF00ABE
:400CC00060091608CC0601000000E02EC05D00001800000000366E010000000000000000000000000000000000000000000000000000000000000000540C00000000000052
:400D000000000000000000000000000000000000000000000000000000000000000000000000000000000000000000000000000000000000000000001081FF1F0000000004
:400D40000000000000000000000000000000000000000000000000000000000000000000000000000000000000000000000000000000000000000000000000000000000073
:400D80000000000000000000000000000000000000000000000000000000000000000000000000000000000000000000000000000000000000000000000000000000000033
:400DC00000000000000000000000000000000000000000000000000000000000000000000000000000000000000000000000000000000000000000000000000000000000F3
:400E000000000000000000000000000000000000000000000000000000000000000000000000000000000000000000000000000000000000000000000000000000000000B2
:020000040003F7
:0200000480007A
:40000000025200400164004001050140030701403C0801402C0901402E0A0140200B0140410C01401F0D0140044001400341014005420140084301400445014001460140EA
:40004000034801400250014001510140100211018D0FE202E204E820EA09000A0284030708010AFA0C100E860F0110051202130514041642170F1B071C201E8626FE271F9F
:4000800028022AFC2B063007310532783308351036C0370338203A8A3BAA580859085C885F3180058202840486128C028E3C9001927A9301940A96249E7EB040B230B418FE
:4000C000B607B701B902BAAABB80D808D908DC88DF31000503020510074109820A100D080E41171818051A101B021D181E411F282182244027592F28310237193C403E0102
:400100005C805E4078807A807E807F01824093029401A280A801AF02B101C0DDC2BDC460CA60CCE1CE90DE99E8200603140130013202360138A23A0858045C085F31800A17
:40014000828483078410868687058C028EFC8F01900592029307940196FA98049A429B0F9C209E86A706AAFEAB1FB007B105B310B478B503B6C0B708B808BAA2BBAAD80868
:40018000D908DC88DF310320040407410A100D0A0E0517201A121B221D0A1E051F09244427612E042F0837213C443E0179027A807E818502AD80C0B4C2F4C440CA60CCA0C5
:4001C000CED0DE91E8084060410549FF4AFF4BFF4DA04F0450185A045F01604062C06440654066C068C06AC06CC06EC089028D088E02920197039A0E9B0CA608AA04B004C2
:40020000B104B202B301B401B508B608B702BE04C020C105C5D5C721C833C9FFCAFFCBFFCDAFCE0FCF04D018D280D407D804D904DA04DB04DF01E040E2C0E440E540E6C030
:40024000E8C0EAC0ECC0EEC002020A44102819841A041B1220502250302838504204482049014A024E024F205008520259055AA072408302C001C20AC406CC06CE0CD00489
:40028000D238D60FE004302836083710CCF09F10A428A60884089F10A428A608E24083109E089F10A820AE08B208E220EA90530256208220D403AF022A089E08CA4000015E
:4002C0000E0100FF007F7F0000000000000B0B00000000000003030003000000000000000000000000000000000000000000000000000000000000000000000000000000D3
:4003000000000000000000000000000000000000000000000000000000000000000000000000000000000000000000000000000000000000000000000000000000000000BD
:40034000000000000000000000000000000000000000000000000000000000000000000000000000000000000000000000000000000000000000000000000000000000007D
:40038000000000000000000000000000000000000000000000000000000000000000000000000000000000000000000000000000000000000000000000000000000000003D
:4003C00000000000000000000000000000000000000000000000000000000000000000000000000000000000000000000000000000000000000000000000000000000000FD
:0200000490006A
:0400000000004005B7
:0200000490105A
:04000000BC90ACAF55
:0200000490303A
:02000000E99580
:0200000490402A
:4000000000000000000000000000000000000000000000000000000000000000000000000000000000000000000000000000000000000000000000000000000000000000C0
:400040000000000000000000000000000000000000000000000000000000000000000000000000000000000000000000000000000000000000000000000000000000000080
:400080000000000000000000000000000000000000000000000000000000000000000000000000000000000000000000000000000000000000000000000000000000000040
:4000C0000000000000000000000000000000000000000000000000000000000000000000000000000000000000000000000000000000000000000000000000000000000000
:0200000490501A
:0C00000000012E16106900012E1BF9FEF5
:00000001FF