:4000000000800020110000001D0800001D08000008B5044B1A6803F53F5302331A6000F005FC00BFFA46004010B5054C237833B9044B13B10448AFF300800123237010BD2C
:40004000C881FF1F0000000058100000084B10B51BB108490848AFF300800848036803B910BD074B002BFBD0BDE81040184700BF00000000CC81FF1F58100000C880FF1F32
:400080000000000038B50021084600F0E9FD1A4800F07EFD0021084600F0E2FD174B187800F0FCFD164B187800F0F8FD154C204600F06EFD144B187800F0F0FD134B187876
:4000C00000F0ECFD204600F063FD114D2878C0B2104CA4FB0030C00800F0E0FD2B78DBB2A4FB0324E40804EB84046000181AC0B200F0D4FD38BD00BF5C100000EE81FF1F76
:40010000EA81FF1F6C100000EC81FF1FF281FF1FEB81FF1FCDCCCCCC2DE9F04105460F464FF448641BE07B1E032B12D8DFE803F002060A0E204600F0E7FB0AE0204600F00F
:40014000E9FB06E0204600F0CBFE02E0204600F0CDFEC82000F042FC04F59674A4B241F244639C42DFD901244BE07B1E032B43D8DFE803F0020E2B3704EB840303EB43139C
:400180005800C0F5B250043080B200F0BDFB33E0072D01D0092D0CD104EBC40004EBC00000EB8000C0F5B250043080B200F0B2FB22E004EB840303EB43135800C0F5B250A5
:4001C000043080B200F0A6FB16E004EB840303EB43135800C0F5B250043080B200F080FE0AE004EB840303EB43135800C0F5B250043080B200F07AFEC82000F0EFFB0134FD
:40020000E4B2A846854B5E5DB442AED92B441B7B9E423AD2013F032F32D8DFE807F0020E1A26062D04D14FF47A6000F06DFB27E04FF42F6000F068FB22E0062D04D140F6CE
:400240003C7000F067FB1BE04FF42F6000F062FB16E0062D04D140F63C7000F041FE0FE04FF42F6000F03CFE0AE0062D04D140F63C7000F03BFE03E04FF42F6000F036FE96
:40028000C82000F0ABFBBDE8F081013F032F00F2BF80DFE807F0025F3E93604B03EB4606308B00F031FB092D1FD8DFE805F0050A0F1E1E1E1E141E1940F6B83000F024FB64
:4002C000A6E040F63E5000F01FFBA1E040F66A6000F01AFB9CE040F6746000F015FB97E040F61C4000F010FB92E04C4B5C5D0AE04A4B03EB4403188B00F006FBC82000F0B8
:400300006DFB013CE4B2454B43441B7B9C42EFD87EE0424B03EB4606B08E00F0E1FD092D04D140F6863000F0DBFD71E03B4B5C5D0AE03A4B03EB4403988E00F0D1FDC82040
:4003400000F04CFB013CE4B2344B43441B7B9C42EFD85DE0092D2BD8DFE805F0052A2A2A0A2A0F142A1940F6B83000F0D3FA4FE041F2301000F0CEFA4AE040F63C7000F0B2
:40038000C9FA45E040F6025000F0C4FA40E040F68C2000F0BFFA3BE0204B03EB4603B3F8500000F0B7FAC82000F018FB013EF6B21A4B43441B7B9E42EED829E0174B03EBC8
:4003C0004606B6F86C0000F091FD042D02D0092D05D009E041F2680000F088FD18E040F6B83000F083FD13E00C4B5C5D0BE00B4B03EB4403B3F86C0000F078FDC82000F0BF
:40040000EDFA013CE4B2054B43441B7B9C42EED8C82000F0E3FABDE8F08100BFCC80FF1F08B5284A13781844C0B210701378DBB23B2B46D90022234B1A70234A1378013312
:40044000DBB213701378DBB20A2B35D100221E4B1A701E4A13780133DBB213701378DBB2062B24D10022194B1A70194A13780133DBB213701378DBB20A2B13D10022144B9B
:400480001A70144A13780133DBB213701378DBB2022B02D100220F4B1A700E4B18780421FFF73AFE0A4B18780321FFF735FE074B18780121FFF730FE034B18780121FFF7DB
:4004C0002BFE08BDEB81FF1FF281FF1FEC81FF1FEA81FF1FEE81FF1F08B50120FFF7A0FFFFF7D0FD08BD00BF08B5012000F076FA00F056FC01281FD0022828D1154B1B78EA
:40050000012B0CD10021012000F0AAFB124800F03FFB00F069FC00220E4B1A7017E00021012000F09DFB0D4800F032FB00F0B6FC0122084B1A700AE0064B1B782BB93C201A
:40054000FFF76EFF0022064B1A70FFF79BFD00F02FFC08BDED81FF1F701000005C100000EB81FF1F08B562B6154800F00BFC154800F0E0FB00F024FA00F00EFD00F062FB04
:4005800000F08CFC104C00232370104D2B70104E3370104A137010490B7001210F4B19701078FFF7B9FD30780221FFF7B5FD28780321FFF7B1FD20780421FFF7ADFDFEE7B1
:4005C000E9040000D9040000EE81FF1FEA81FF1FEC81FF1FF281FF1FEB81FF1FED81FF1FFEE700BFF0B40022174611E050F82760F3B226F0FF0608E001EB420511F812402C
:400600006D78A5550132013BDBB2002BF4D10137112FEBD9F0BC7047064B1B78DBB203F00701054A11701B09013213704422034B1A707047CF0100496E5800407658004018
:4006400008B50A46002100F0FEFC08BD38B50922264B1A801823264A137042F6DF6102321180023213700222224B1A7008224FF040231A70032103F5007319701E4B1B78D3
:40068000DBB21E490B701E4B1A8041F25122023B1A80002419250CE01A4B1B7803F0010343EA440404F003044FF4F07000F084FC013D0DB1032CEFD115B90320FFF790FF2A
:4006C000114B4FF480721A8007221A7000220F490A704820023108701A700222033B1A700B4A137843F00303137038BD80400040824000400043004008010049A146004010
:4007000022420040254200400440004006400040A243004008B500F08BFC08BD38B572B62D4A137843F00403137000240CE02B4D630019194A0011462A440846918828585F
:40074000FFF77EFF0134E4B2082CF0D924494FF09040FFF747FF234A137843F0020313701032137843F0020313701F4C237843F040032370A2F58632513A137843F0100391
:400780001370082219491A48FFF7C4FF082219491948FFF7BFFF082218491948FFF7BAFF0A2218491848FFF7B5FF184A137843F008031370164D61232B70FFF747FF81232C
:4007C0002B700122134B1A70FFF726FF0E2221461148FFF79FFF38BDE8460040801000004800004803500140A04300402C020048C251004034020048125100403C0200480A
:40080000225100404402004830510040224300400048004004000840B043004008B500F0DBFB03680C2B00D1FEE7FEE708B5104E104D16E029686B68AC68002204E051F815
:40084000040B43F8040B0432A242F8D1E868002203E0002143F8041B04328242F9D11035013E002EE6D100F0BDFBFFF77BFEFEE701000000DC10000008B5104A104B1A606A
:40088000104A136843F40073136000230AE0032B03D80D4A52F8231000E00C490C4A42F8231001332F2BF2D90A4B1A780A4B1A70074A0A4B1A60FFF731FF08BD0004FA0537
:4008C0000CED00E014ED00E0000000001D0800000080FF1FBC760040C080FF1F08ED00E0024A137843F08003137070477B640040014B1880704700BF14680040014B1880F6
:40090000704700BF94680040014B1880704700BF54680040014B1880704700BF74680040014B1870704700BF8B640040014B1878704700BF6B640040014B188880B270478A
:40094000B468004008B501E0FFF7F6FFFFF7EEFF10F0100FF8D108BD10B5174A137803F0C00343F0090313701F32137843F001031370124C237843F0010323704BF680308F
:40098000FFF7B6FF4BF68030FFF7B8FF4FF46160FFF7BAFF4FF46160FFF7BCFF0020FFF7BFFF00F011FB237843F01003237000F00FFBFFF7C7FF10BD7B6400409B64004061
:4009C00008B5054B1B7823B9FFF7C6FF0122024B1A70FFF785FF08BDE481FF1F10B5044605E0084B186800F0E7FAA4F50044B4F5004FF6D8034B586800FB04F000F0DCFA06
:400A000010BD00BF5481FF1F08B5034B1B7A00FB03F000F0D1FA08BD5481FF1F10B50B4C237803F09F032370237803F0F00323702378184340F0100020700120FFF7E4FF83
:400A4000237803F0EF03237010BD00BFC051004038B505460E4C237843F020032370237803F0BF0323700020FFF7CEFF237803F0F003237023781D4345F01005257001209B
:400A8000FFF7C2FF237803F0EF03237038BD00BFC051004070B5354B1A7802F08002D2B21A7033490A7802F0F00242F00F020A7001310A7802F0F0020A7001310A7802F057
:400AC000F0020A701A7802F0DF021A701A7842F040021A704FF4CA760020FFF795FF234D2B7843F010032B700120FFF78DFF214B1C78E4B22B7803F0EF032B700020FFF778
:400B000083FF04F00804E4B22B7843F010032B700120FFF779FF2B7803F0EF032B7014B90A20FFF771FF013E0CB1002ED4D10F4A137803F0BF031370137803F08003DBB291
:400B400013700232137803F0F00313700132137803F0F00343F00F0313700132137803F0F00343F00F03137070BD00BFC0510040C2510040C151004010B50446FFF78AFF82
:400B80002009FFF765FF04F00F00FFF761FF10BD38B505460078012404E0FFF7EDFF285D0134E4B20028F8D138BD00BF10B50446FFF770FF2009FFF731FF04F00F00FFF740
:400BC0002DFF10BD08B52820FFF708FF0320FFF725FF0520FFF702FF0320FFF71FFF0F20FFF7FCFE0320FFF719FF0120FFF7F6FE0220FFF713FF0520FFF7F0FE0620FFF7C0
:400C0000D5FF0E20FFF7D2FF2C20FFF7CFFF0820FFF7CCFF0120FFF7C9FF0C20FFF7C6FF0320FFF7C3FF0520FFF7D8FE08BD00BF08B50C20FFF7BAFF0122014B1A7008BD86
:400C4000E581FF1F08B5054B5B7823B9FFF7BAFF0122024B5A70FFF7EBFF08BDE581FF1F08B5032819D8DFE800F002070D1381F08000FFF79BFF08BDA1F14000C0B2FFF7E9
:400C800095FF08BDA1F16C00C0B2FFF78FFF08BDA1F12C00C0B2FFF789FF08BD10B584B000238DF80E30092211E0144BA3FB0013DB081C4603EB83035900431ADBB2303345
:400CC00004A9114401F80C3C2046013AD2B20928EBD80A4BA3FB0013DB0803EB83035900431ADBB2303304A9114401F80C3C01AB9818FFF74DFF04B010BD00BFCDCCCCCC43
:400D0000014B1B681864704708ED00E04001C0B2014B1870704700BF00E400E00122014B1A60704700E100E00122014B1A60704780E100E010B50446FFF7F6FF2046FFF783
:400D4000DFFF0720FFF7E2FFFFF7E8FF10BD00BF014B1B68D865704708ED00E04001C0B2014B1870704700BF07E400E08022014B1A60704700E100E08022014B1A607047CF
:400D800080E100E010B50446FFF7F6FF2046FFF7DFFF0720FFF7E2FFFFF7E8FF10BD00BF024B187800F00300704700BF31510040024B187800F00300704700BF8345004001
:400DC000084A137843F0010313701032137843F00103137002F64D32137843F001031370704700BFA3430040084A137803F0FE031370A2F65D32137803F0FE0313701032BE
:400E0000137803F0FE031370704700BF004F0040014B1870704700BF034F0040014B1880704700BF044F0040014B1880704700BF064F004008B5164A137803F001031370D1
:400E40000232137803F0FC031370124B1A7802F0CF021A701A7842F030021A701A7802F0F0021A701A7842F00F021A700A4A137843F00103137040F2CF70FFF7CFFF40F223
:400E8000CF70FFF7D1FF0020FFF7C2FF08BD00BF004F00400B4F0040014F004008B5054B1B7823B9FFF7C6FF0122024B1A70FFF787FF08BDE781FF1F024A137843F0800394
:400EC000137070477D640040014B1880704700BF18680040014B1880704700BF98680040014B1880704700BF58680040014B1880704700BF78680040014B1870704700BFC5
:400F00008D640040014B1878704700BF6D640040014B188880B27047B868004008B501E0FFF7F6FFFFF7EEFF10F0100FF8D108BD10B5174A137803F0C00343F009031370A6
:400F40001F32137843F001031370124C237843F0010323704BF68030FFF7B6FF4BF68030FFF7B8FF4FF46160FFF7BAFF4FF46160FFF7BCFF0020FFF7BFFF00F025F82378FA
:400F800043F01003237000F023F8FFF7C7FF10BD7D6400409D64004008B5054B1B7823B9FFF7C6FF0122024B1A70FFF785FF08BDE881FF1F000000000230800803D000BF1F
:400FC00001380046FCD17047EFF3108072B6704780F31088704700BF014B1868704700BFC481FF1F0E4B70B51E460E4C0025E41AA410A54204D056F8253098470135F8E712
:4010000000F05AF8084B094C1E46E41AA4100025A54204D056F8253098470135F8E770BDC4100000C4100000C4100000CC10000010B5431E0A44914204D011F8014B03F849
:40104000014FF8E710BD03460244934202D003F8011BFAE77047000000000000202020202020202020202020200000003A000000436F6E66696775726163696F6E0000006E
:40108000004F00400C00005100401000405100403000F0510040100000000140001000140140000800400140000A004C014000020050014020004300F8B500BFF8BC08BCC2
:4010C0009E4670474D00000079080000F8B500BFF8BC08BC9E46704729000000F0100000C880FF1F000100003000000000000000000000000C090B0A090A000900090000F9
:40110000080706060405050608080000441604151414CA129411AE10A00F420E620CB80BFC081608CC060000441604151414CA1294119A10D80EAC0DE40C220BFC081608CE
:40114000CC060000441604151414CA129411CC10A00F060EE40C860BFC081608CC060000441604151414CA129411CC10D80E980D940C0E0BFC081608CC0601000000E02E2E
:40118000C05D00001800000000366E010000000000000000000000000000000000000000000000000000000000000000B6100000000000000000000000000000000000008F
:4011C00000000000000000000000000000000000000000000000000000000000000000000000000000000000000000006481FF1F00000000000000000000000000000000EC
:4012000000000000000000000000000000000000000000000000000000000000000000000000000000000000000000000000000000000000000000000000000000000000AE
:40124000000000000000000000000000000000000000000000000000000000000000000000000000000000000000000000000000000000000000000000000000000000006E
:40128000000000000000000000000000000000000000000000000000000000000000000000000000000000000000000000000000000000000000000000000000000000002E
:4012C00000000000000000000000000000000000000000000000000000000000000000000000000000000000000000000000000000000000000000000000000000000000EE
:020000040003F7
:0200000480007A
:4000000002450040024F0040025200400264004001030140420A0140260B0140410C0140200D0140040E0140010F01400240014004410140064201400745014004460140E0
:4000400003500140015101401802190201100A4B100511098B0F8D0FEE084030410249FF4AFF4BFF4DA04F0450185A045F01604062C06440654066C068C06AC06CC06EC092
:40008000830C87038A0E910299089E08A602AA04AE01B004B102B201B308B402B504B608B701BE10C030C102C5D0C620C751C83AC9FFCAFFCBFFCDAFCE0FCF04D018D2801F
:4000C000D407D804D904DA04DB04DF01E040E2C0E440E540E6C0E8C0EAC0ECC0EEC004100F02162817401C901D081E09244026202722362037023E083F0240104120452899
:400100004F015520562857015C405E085F2177408601A440AB40AC40C040C280C4E0CCA0CEC0D066D6F0E008E8064060410549FF4AFF4BFF4DA04F0450185A045F01604030
:4001400062C06440654066C068C06AC06CC06EC089028D088E02920197039A0E9B0CA608AA04B004B104B202B301B401B508B608B702BE04C020C105C5D5C721C833C9FF53
:40018000CAFFCBFFCDAFCE0FCF04D018D280D407D804D904DA04DB04DF01E040E2C0E440E540E6C0E8C0EAC0ECC0EEC002020A44102819041A041B522050225030283850C4
:4001C0004204482049014A024E024F205008520259055AA072408302AF01C001C20AC406CC06CE0CD004D238D60FE00438023E0158045F011B013280CC10A301A680AF010E
:40020000EE1012806302A301A680C410D640508056205A405F808220D407D6048480A480AA40AF8000010C010E010002007F7F0000000000000B0B0000000000000F0F006D
:400240000F00000003000003000000000000000000000000000000000000000000000000000000000000000000000000000000000000000000000000000000000000000069
:40028000000000000000000000000000000000000000000000000000000000000000000000000000000000000000000000000000000000000000000000000000000000003E
:4002C00000000000000000000000000000000000000000000000000000000000000000000000000000000000000000000000000000000000000000000000000000000000FE
:4003000000000000000000000000000000000000000000000000000000000000000000000000000000000000000000000000000000000000000000000000000000000000BD
:40034000000000000000000000000000000000000000000000000000000000000000000000000000000000000000000000000000000000000000000000000000000000007D
:0200000490006A
:0400000000004005B7
:0200000490105A
:04000000BC90ACAF55
:0200000490303A
:02000000B5FC4D
:0200000490402A
:4000000000000000000000000000000000000000000000000000000000000000000000000000000000000000000000000000000000000000000000000000000000000000C0
:400040000000000000000000000000000000000000000000000000000000000000000000000000000000000000000000000000000000000000000000000000000000000080
:400080000000000000000000000000000000000000000000000000000000000000000000000000000000000000000000000000000000000000000000000000000000000040
:4000C0000000000000000000000000000000000000000000000000000000000000000000000000000000000000000000000000000000000000000000000000000000000000
:0200000490501A
:0C00000000012E16106900012E1DC665BF
:00000001FF